:0300000002068A6B
:0C068A00787FE4F6D8FD75816B0206D184
:1008E0004D6F6E54756557656454687246726953EE
:0808F000617453756E267C5EF5
:10071600013200020800320216003B0237000B02CB
:1007260030000602330001023507E7183B001F00C0
:100736001F001C001F001E001F001E001F001F00C0
:100746001E001F001E1818001F001F001D001F009E
:100756001E001F001E001F001F001E001F001E0C93
:100766000A00840087008A00C200C500C801530041
:0707760001540002390000EC
:1005590075080075093775160075173B75370075ED
:10056900381775300075311D7533007534027535CE
:10057900077536E81208C5120935D2AFD2AB7589AD
:1005890010758D3C758BB0D28E1207E312048E1252
:100599000348E532C39414401EA2B082B182B282EC
:1005A900B3501474EC2532F5320509E509700205DA
:1005B900081207E312077EE5374516FEE5384517A9
:1005C900FFE5084EFEE5094F4E700312034820B2BD
:1005D9000F1209191209191209197553011208463E
:1005E90020B3AF1209191209191209197554011208
:0405F900001E809EC2
:03001B00020928AF
:0D092800C28E758D3C758BB0D28E053232BB
:1007E300C3E509943CE5089400405774C42509F512
:1007F3000974FF3508F5080517E51770020516C3D8
:10080300E517943CE516940040D674C42517F517F4
:1008130074FF3516F5160538E53870020537C3E55C
:10082300389418E537940040D674E82538F53874C1
:10083300FF3537F5370531E5317002053012048E87
:0308430080DC2234
:10048E00AE35AF367C017D901202BDED4C6014E5A9
:10049E003654037063AE35AF36FC7D641202BDED8B
:1004AE004C6055AE33AF347C007D0C1202BDED2591
:1004BE00E02418F8E6FE08E6FFD3E5319FE5309E0E
:1004CE005003020558E5319FF531E5309EF53005B4
:1004DE0034E53470020533D3E534940CE5339400DF
:1004EE0040C174F42534F53474FF3533F5330536D5
:1004FE00E53670E3053580DFAE33AF347C007D0C1E
:10050E001202BDED25E0243BF8E6FE08E6FFD3E53A
:10051E00319FE5309E4033E5319FF531E5309EF554
:10052E00300534E53470020533D3E534940CE533ED
:10053E00940040C474F42534F53474FF3533F53328
:0B054E000536E53670E3053580DF223E
:10077E007FC112000AAE37AF387C007D0A1202BD6F
:10078E00EF2430FF120892AE37AF381208877F3A47
:10079E00120892AE16AF177C007D0A1202BDEF242E
:1007AE0030FF120892AE16AF171208877F3A120862
:1007BE0092AE08AF097C007D0A1202BDEF2430FF15
:1007CE00120892AE08AF097C007D0A1202BDED241C
:0507DE0030FF0208924B
:100348007F8112000AAE35AF367C037DE81202BD0C
:10035800EF2430FF1208927D6412087E7D0A12088D
:100368007EAE35AF361208877F2D120892AE33AFB6
:10037800347C007D0A1202BDEF2430FF120892AED1
:1003880033AF341208877F2D120892AE30AF317C1C
:10039800007D0A1202BDEF2430FF120892AE30AF82
:1003A800311208877F20120892C3E5349403E5339D
:1003B80094005019E534240CF569E43533F568E503
:1003C8003624FFF56BE53534FFF56A800C85336814
:1003D80085346985356A85366BE5692401FFE4351E
:1003E80068FE7C007D031202AB7D05120312AC0689
:1003F800AD07E56925E0FFE56833FEE5312FCFE578
:10040800303ECF2DCF3CCF256BFBEF356AFAAE6A75
:10041800AF6B7C007D04120312EF2BFBEE3AFAAEB1
:100428006AAF6B7C007D64120312C3EB9FFBEA9EEC
:10043800FAAE6AAF6B7C017D90120312EF2BFFEED0
:100448003AFE7C007D071202BD8C668D67E4F56478
:10045800F565E56775F003A424E0F582E43408F552
:1004680083E5822565F582E43583F583E493FF12FD
:1004780008920565E56570020564C39403E5646444
:0504880080948040CDCE
:01048D00224C
:0E090A007FD07E07EF1FAC0670011E4C70F60A
:0109180022BC
:0E0919007F107E27EF1FAC0670011E4C70F69B
:0109270022AD
:070003007F0F12000A7F8449
:10000A008F80C2A6C2A512090AD2A712090AC2A7DC
:01001A0022C3
:10087E00AE35AF367C001202BD7C007D0A1202BD81
:04088E00ED2430FF26
:10089200D2A6C2A5C2A78F80120919D2A7C2A722C7
:1008C500C2A77F3812000A7F0C12000A7F061200A9
:0B08D5000A7F0112000A7F8002000A67
:07093500C2A77F0102000AC6
:1008F8007F0F12000AE53A25E0240AF808E6FF020D
:02090800000AE3
:1008A200053AE53A70020539C39406E539940040E9
:1008B2000C74FA253AF53A74FF3539F5391208F80D
:0308C2000209190F
:1005FD00E5396003020689E53A14601A14603E1469
:10060D006048146056146063240570700536E53635
:10061D007064053580600534E53470020533D3947C
:10062D000CE5339400401474F42534F53474FF351F
:10063D0033F5330536E5367002053580390531E57C
:10064D00317002053012048E802C74102509F509C5
:10065D00740E3508F5081207E3801B743C2509F567
:10066D0009E43508F5081207E3800B0509E5097063
:0D067D000205081207E312077E120348224F
:10084600E4F539F53A1208F8120919E5536006A2DB
:10085600B2E4335253E553700B7F0C12000A1203B5
:100866004802077E20B1061209191208A220B0D844
:080876001209191205FD80D0E2
:10001E00E4F555F55675570A75581A755912755AED
:10002E004A785B7C00FD7BFF7A0879F5FE7F031230
:10003E000285E5575559FEE558555AFFE5354EFEF2
:10004E00E5364FFFE5335508FCE5345509FDEE5C0A
:10005E00FEEF5DFFE5165EFEE5175FFFE5375530F7
:10006E00FCE5385531FDEE5CF560EF5DF56112098A
:10007E0035AE57AF587C037DE81202BDEF2430FF3A
:10008E00120892AE57AF587C007D64120884AE57AA
:10009E00AF587C007D0A120884AE57AF58120887FD
:1000AE007F3F120892AE59AF5A7C037DE81202BD13
:1000BE00EF2430FF120892AE59AF5A7C007D6412C5
:1000CE000884AE59AF5A7C007D0A120884AE59AF2F
:1000DE005A0201AF120919E5546006A2B3E4335275
:1000EE0054E554700E7F0C12000A120935120348A3
:1000FE0002077E20B10612091912000320B0D51294
:10010E0009190556E55670020555D3E5569402E5D4
:10011E00559400400E74FD2556F55674FF3555F571
:10012E005580E7120003745B2556F8E6FF1208921D
:10013E001209197F0C12000A7FC012000AE55570D1
:10014E0034E55614601514602024027028E55755C6
:10015E0059F560E558555AF561801AE5574559F538
:10016E0060E558455AF561800CE5576559F560E52F
:10017E0058655AF561AE60AF617C037DE81202BD31
:10018E00EF2430FF120892AE60AF617C007D6412E6
:10019E000884AE60AF617C007D0A120884AE60AF49
:0701AE00611208870200E264
:10069600020559E493A3F8E493A34003F68001F21C
:1006A60008DFF48029E493A3F85407240CC8C33365
:1006B600C4540F4420C8834004F456800146F6DF34
:1006C600E4800B0102040810204080900716E47EA7
:1006D600019360BCA3FF543F30E509541FFEE49329
:1006E600A360010ECF54C025E060A840B8E493A3F0
:1006F600FAE493A3F8E493A3C8C582C8CAC583CA1B
:10070600F0A3C8C582C8CAC583CADFE9DEE780BED2
:01077D00007B
:1001B500E709F608DFFA8046E709F208DFFA803E2C
:1001C50088828C83E709F0A3DFFA8032E309F60819
:1001D500DFFA8078E309F208DFFA807088828C8381
:1001E500E309F0A3DFFA806489828A83E0A3F60835
:1001F500DFFA805889828A83E0A3F208DFFA804C0F
:1002050080D280FA80C680D4806980F280338010E5
:1002150080A680EA809A80A880DA80E280CA80334E
:1002250089828A83ECFAE493A3C8C582C8CCC583C6
:10023500CCF0A3C8C582C8CCC583CCDFE9DEE78096
:100245000D89828A83E493A3F608DFF9ECFAA9F015
:10025500EDFB2289828A83ECFAE0A3C8C582C8CC6B
:10026500C583CCF0A3C8C582C8CCC583CCDFEADE84
:10027500E880DB89828A83E493A3F208DFF980CCE6
:1002850088F0EF60010E4E60C388F0ED2402B404DF
:100295000050B9F582EB2402B4040050AF23234586
:0602A500822390020573A4
:1002AB00EF8DF0A4A8F0CF8CF0A428CE8DF0A42E67
:0202BB00FE2221
:1002BD00BC000BBE0029EF8DF084FFADF022E4CC25
:1002CD00F875F008EF2FFFEE33FEEC33FCEE9DECEE
:1002DD00984005FCEE9DFE0FD5F0E9E4CEFD22ED34
:1002ED00F8F5F0EE8420D21CFEADF075F008EF2F7E
:1002FD00FFED33FD4007985006D5F0F222C398FD6F
:05030D000FD5F0EA220B
:10031200C2D5EC30E709B2D5E4C39DFDE49CFCEE06
:1003220030E715B2D5E4C39FFFE49EFE1202BDC3BF
:10033200E49DFDE49CFC80031202BD30D507C3E4BA
:060342009FFFE49EFE2275
:00000001FF
